:020000040000FA
:0600000095EF21F0120053
:020006001200E6
:060008004BEF19F012009D
:02000E000500EB
:100010009A440000E20100001C000000954400002A
:10002000F70200000500000093440000FE000000FD
:1000300002000000D343000000010000C0000000E7
:0C00400088430000760200004B00000026
:04004C009AD8D7D88F
:10005000CAD8D5D8F6D8D3D808D9D1D812D925D965
:100060000A0EE66EC1EC1DF0E552120080DA080EB1
:10007000E66EC1EC1DF0E552F6C0E6FFF7C0E6FF04
:10008000B6D9E552E552B6DA46EF03F04ED8F9D8C4
:100090000CD9020EE66EC1EC1DF0E552D7DFEAEC9A
:1000A00005F036EF00F0E66A88EC1CF0E5520F012F
:1000B000106F090E166E010E176E186A16C0E6FF55
:1000C00017C0E6FF18C0E6FF1051E66EE66A08ECBE
:1000D0001FF0196E050EE15E1950F3CF14F0F4CF46
:1000E00015F01450151020E0CE0E146E2A0E156E69
:1000F000166A14C0E6FF15C0E6FF16C0E6FF110E33
:10010000E66E0F0EE66EE1EC1EF0176E050EE15E78
:100110001750010EE66E110EE66E0F0EE66ECAEC7B
:100120001CF0E552E552E5521200D9CFE6FFE1CFCF
:10013000D9FF070EE126D9CFE9FFDACFEAFF410E5A
:10014000EE6E540EEE6E2B0EEE6E520EEE6E530EE3
:10015000EE6E540EEE6EEE6A010EE66ED9CFE6FF3D
:10016000DACFE6FFCAEC1CF0E552E552E552070E85
:10017000E15C02E2E16AE552E16EE552E7CFD9FFC8
:100180001200D9CFE6FFE1CFD9FF0A0EE126D9CF81
:10019000E9FFDACFEAFF410EEE6E540EEE6E2B0E43
:1001A000EE6E430EEE6E570EEE6E4A0EEE6E410E82
:1001B000EE6E500EEE6E3D0EEE6EEE6A010EE66EC7
:1001C000D9CFE6FFDACFE6FFCAEC1CF0E552E552E4
:1001D000E5520A0EE15C02E2E16AE552E16EE552A7
:1001E000E7CFD9FF1200010EE66E2D0EE66E010E6E
:1001F000E66ECAEC1CF0E552E552E5521200D9CF8A
:10020000E6FFE1CFD9FF020EE126D9CFE9FFDACF31
:10021000EAFF220EEE6EEE6A010EE66ED9CFE6FF21
:10022000DACFE6FFCAEC1CF0E552E552E552020EC9
:10023000E15C02E2E16AE552E16EE552E7CFD9FF07
:100240001200D9CFE6FFE1CFD9FFE6522C0EDF6EC8
:10025000010EE66EDFCFE6FF67EC1CF0E552E552DB
:10026000E552E552E7CFD9FF1200010EE66E3C0ED3
:10027000E66E010EE66ECAEC1CF0E552E552E55260
:100280001200D9CFE6FFE1CFD9FFE6520D0EDF6EA7
:10029000010EE66EDFCFE6FF67EC1CF0E552E5529B
:1002A000E552E552E7CFD9FF1200D9CFE6FFE1CF03
:1002B000D9FFE6520A0EDF6E010EE66EDFCFE6FFD3
:1002C00067EC1CF0E552E552E552E552E7CFD9FF65
:1002D0001200D9CFE6FFE1CFD9FF0D0EE126D9CF2D
:1002E000E9FFDACFEAFF410EEE6E540EEE6E2B0EF2
:1002F000EE6E430EEE6E490EEE6E500EEE6E530E27
:10030000EE6E540EEE6E410EEE6E520EEE6E540E0A
:10031000EE6E3D0EEE6EEE6A010EE66ED9CFE6FF92
:10032000DACFE6FFCAEC1CF0E552E552E5520D0EBD
:10033000E15C02E2E16AE552E16EE552E7CFD9FF06
:100340001200D9CFE6FFE1CFD9FF040EE126D9CFC5
:10035000E9FFDACFEAFF540EEE6E430EEE6E500E5A
:10036000EE6EEE6A010EE66ED9CFE6FFDACFE6FF5B
:10037000CAEC1CF0E552E552E552040EE15C02E2E3
:10038000E16AE552E16EE552E7CFD9FF1200010EB6
:10039000E66E450EE66E010EE66ECAEC1CF0E55206
:1003A000E552E5521200D9CFE6FFE1CFD9FF030EA7
:1003B000E126D9CFE9FFDACFEAFF380EEE6E300E34
:1003C000EE6EEE6A010EE66ED9CFE6FFDACFE6FFFB
:1003D000CAEC1CF0E552E552E552030EE15C02E284
:1003E000E16AE552E16EE552E7CFD9FF1200D9CFBD
:1003F000E6FFE1CFD9FF060EE126D9CFE9FFDACF3C
:10040000EAFF500EEE6E4F0EEE6E530EEE6E540E71
:10041000EE6E200EEE6EEE6A0F010F6B000EE66EB2
:10042000020EE66EFAEC1EF0E552E552F3CF76F2DC
:10043000F4CF77F2580EE66E010EE66EFAEC1EF07F
:10044000E552E552F3CF78F2F4CF79F2960EE66EEC
:10045000010EE66EFAEC1EF0E552E552F3CF7AF2A9
:10046000F4CF7BF2830EE66E010EE66EFAEC1EF020
:10047000E552E552F3CF7CF2F4CF7DF202017851E0
:100480007A25166E79517B21176E16507C25146ED5
:1004900017507D21156E145076257E6F15507721EB
:1004A0007F6F9A0E7E27000E7F237EC2E6FF7FC2FB
:1004B000E6FFCB0E146E2A0E156E166A14C0E6FF08
:1004C00015C0E6FF16C0E6FF0F0EE66E0F0EE66ED5
:1004D00050EC1FF0176E070EE15E175055D8010E55
:1004E000E66E0F0EE66E0F0EE66ECAEC1CF0E552DD
:1004F000E552E552C6DED9DE040EE66EC1EC1DF013
:10050000E552010EE66ED9CFE6FFDACFE6FFCAEC80
:100510001CF0E552E552E552010EE66E580EE66E0D
:10052000010EE66ECAEC1CF0E552E552E552010EF2
:10053000E66E960EE66E010EE66ECAEC1CF0E55213
:10054000E552E552010EE66E000EE66E020EE66E14
:10055000CAEC1CF0E552E552E552060EE15C02E2FF
:10056000E16AE552E16EE552E7CFD9FF1200B1DE54
:1005700046DEE7DE44DE65DE42DE09DF40DE61DEC8
:1005800012DF7FDE55EF01F0D9CFE6FFE1CFD9FFD3
:100590000C0EE126D9CFE9FFDACFEAFF410EEE6E6D
:1005A000540EEE6E2B0EEE6E430EEE6E490EEE6E98
:1005B000500EEE6E530EEE6E450EEE6E4E0EEE6E5D
:1005C000440EEE6E3D0EEE6EEE6A010EE66ED9CF73
:1005D000E6FFDACFE6FFCAEC1CF0E552E552E55241
:1005E0000C0EE15C02E2E16AE552E16EE552E7CF12
:1005F000D9FF1200D9CFE6FFE1CFD9FF120EE126D5
:10060000D9CFE9FFDACFEAFF200EEE6E480EEE6E8C
:10061000540EEE6EEE6E500EEE6E2F0EEE6E310E2E
:10062000EE6E2E0EEE6E310EEE6E0D0EEE6E0A0EAC
:10063000EE6E480EEE6E6F0EEE6E730EEE6E740E74
:10064000EE6E3A0EEE6E200EEE6EEE6A010EE66E65
:10065000D9CFE6FFDACFE6FFCAEC1CF0E552E5524F
:10066000E552010EE66E830EE66E010EE66ECAECF2
:100670001CF0E552E552E552120EE15C02E2E16A3D
:10068000E552E16EE552E7CFD9FF1200D9CFE6FF80
:10069000E1CFD9FF470EE126D9CFE9FFDACFEAFF54
:1006A0000D0EEE6E0A0EEE6E430EEE6E6F0EEE6ED9
:1006B0006E0EEE6EEE6E650EEE6E630EEE6E740EE8
:1006C000EE6E690EEE6E6F0EEE6E6E0EEE6E3A0E02
:1006D000EE6E200EEE6E6B0EEE6E650EEE6EEE6E34
:1006E000700EEE6E2D0EEE6E610EEE6E6C0EEE6EF8
:1006F000690EEE6E760EEE6E650EEE6E0D0EEE6E01
:100700000A0EEE6E430EEE6E6F0EEE6E6E0EEE6E17
:10071000740EEE6E650EEE6E6E0EEE6E740EEE6E76
:100720002D0EEE6E4C0EEE6E650EEE6E6E0EEE6ED5
:10073000670EEE6E740EEE6E680EEE6E3A0EEE6E94
:10074000200EEE6E300EEE6E0D0EEE6E0A0EEE6E9A
:10075000430EEE6E610EEE6E630EEE6E680EEE6E82
:10076000650EEE6E2D0EEE6E430EEE6E6F0EEE6E9D
:100770006E0EEE6E740EEE6E720EEE6E6F0EEE6E0E
:100780006C0EEE6E3A0EEE6E200EEE6E6E0EEE6E8D
:100790006F0EEE6E2D0EEE6E630EEE6E610EEE6E51
:1007A000630EEE6E680EEE6E650EEE6E0D0EEE6E64
:1007B0000A0EEE6EEE6A010EE66ED9CFE6FFDACFD4
:1007C000E6FFCAEC1CF0E552E552E552010EE66E7A
:1007D000800EE66E020EE66ECAEC1CF0E552E552A3
:1007E000E552470EE15C02E2E16AE552E16EE55254
:1007F000E7CFD9FF1200D9CFE6FFE1CFD9FF030E33
:10080000E126730EF36E010EF3CFDBFF020EDB6AFF
:10081000080EE66EC1EC1DF0E552DF6AA8DE0A0E96
:10082000E66EC1EC1DF0E552BAD8040EE66EC1ECDE
:100830001DF0E5520AD8030EE15C02E2E16AE552DE
:10084000E16EE552E7CFD9FF120005D834D83FD882
:10085000D1DE9FEF04F0D9CFE6FFE1CFD9FF140E30
:10086000E126BE0E146E2A0E156E166A14C0E6FF3F
:1008700015C0E6FF16C0E6FFD9CFE6FFDACFE6FFE8
:1008800050EC1FF0176E050EE15E1750010EE66E7C
:10089000D9CFE6FFDACFE6FFCAEC1CF0E552E5520D
:1008A000E552140EE15C02E2E16AE552E16EE552C6
:1008B000E7CFD9FF1200010EE66E450EE66E010E7F
:1008C000E66ECAEC1CF0E552E552E5521200D9CFB3
:1008D000E6FFE1CFD9FF280EE1260101AF51E66E18
:1008E000E66AA70EE66E010EE66E9D0E146E2A0EE7
:1008F000156E166A14C0E6FF15C0E6FF16C0E6FFC7
:10090000D9CFE6FFDACFE6FF50EC1FF0176E090EE5
:10091000E15E1750010EE66ED9CFE6FFDACFE6FFB3
:10092000CAEC1CF0E552E552E552280EE15C02E209
:10093000E16AE552E16EE552E7CFD9FF1200D9CF67
:10094000E6FFE1CFD9FF140EE1268B0E146E2A0EBE
:10095000156E166A14C0E6FF15C0E6FF16C0E6FF66
:10096000D9CFE6FFDACFE6FF50EC1FF0176E050E89
:10097000E15E1750010EE66ED9CFE6FFDACFE6FF53
:10098000CAEC1CF0E552E552E552140EE15C02E2BD
:10099000E16AE552E16EE552E7CFD9FF1200D9CF07
:1009A000E6FFE1CFD9FF280EE126A70EE66E010E85
:1009B000E66EFAEC1EF0E552E552F3CF27FFF4CFD6
:1009C00028FF6D0E0F012725256F000E2821266FA9
:1009D00025CFE6FF26CFE6FF7B0E146E2A0E156E9E
:1009E000166A14C0E6FF15C0E6FF16C0E6FFD9CFB1
:1009F000E6FFDACFE6FF50EC1FF0176E070EE15E60
:100A00001750010EE66ED9CFE6FFDACFE6FFCAEC4B
:100A10001CF0E552E552E552280EE15C02E2E16A83
:100A2000E552E16EE552E7CFD9FF1200D9CFE6FFDC
:100A3000E1CFD9FF310EE1262F0EDB6A300EDB6AE3
:100A4000010EE66E88EC1CF0E552E76E2D0EE7CF46
:100A5000DBFFDB507B0801E0F3D7010EE66E88EC8C
:100A60001CF0E552E76E2D0EE7CFDBFFDB502208CE
:100A700001E0F3D72F0EDB6A080EF36E2F0EDBCFEB
:100A8000F4FFF350F45C10E2010EE66E88EC1CF00B
:100A9000E552E76E2D0EE7CFDBFFDB50220801E0C9
:100AA000F3D72F0EDB2AE8D72F0EDB6A010EE66E96
:100AB00088EC1CF0E552E76E2E0EE7CFDBFFDB5033
:100AC000220812E0D9CF14F0DACF15F02F0EDB5048
:100AD0000F011424E96E000E1520EA6E2E0EDBCFF6
:100AE000EFFF2F0EDB2AE2D7D9CF14F0DACF15F0C3
:100AF0002F0EDB500F011424E96E000E1520EA6E54
:100B0000EF6AD9CFE6FFDACFE6FF680E146E2A0E41
:100B1000156E166A14C0E6FF15C0E6FF16C0E6FFA4
:100B2000F5EC1FF0176E050EE15E1750D9CFE6FF0A
:100B3000DACFE6FF6CEC1EF0E552E552F3CF2AFF68
:100B4000F4CF2BFF2ACFE6FF2BCFE6FF500E146E1B
:100B50002A0E156E166A14C0E6FF15C0E6FF16C011
:100B6000E6FFF5EC1FF0176E050EE15E1750DFCFC4
:100B700029FFE66AD9CFE6FFDACFE6FFCAEC1CF020
:100B8000E552E552E552D9CFE6FFDACFE6FFA70EF0
:100B9000E66E010EE66E0101AF51E66EE66A140ED6
:100BA000146E2A0E156E166A14C0E6FF15C0E6FF15
:100BB00016C0E6FFF5EC1FF0176E090EE15E175048
:100BC000310EE15C02E2E16AE552E16EE552E7CF07
:100BD000D9FF12000F01006B0201006B0101B01D73
:100BE00001E1B11D19E0B0C1E6FFB1C1E6FF090E98
:100BF000146E2A0E156E166A14C0E6FF15C0E6FFC5
:100C000016C0E6FF000EE66E020EE66E50EC1FF018
:100C1000176E070EE15E17500101B21D01E1B31D11
:100C200039E00F012F0E006FB2C1E6FFB3C1E6FF3E
:100C3000FE0E146E290E156E166A14C0E6FF15C05E
:100C4000E6FF16C0E6FF000EE66E0F0EE66E50ECF5
:100C50001FF0176E070EE15E1750000EE66E0F0EC6
:100C6000E66E000EE66E020EE66EF90E146E290EAA
:100C7000156E166A14C0E6FF15C0E6FF16C0E6FF43
:100C8000000EE66E020EE66E50EC1FF0176E090EB7
:100C9000E15E17500101B41D01E1B51D39E00F01FE
:100CA0002F0E006FB4C1E6FFB5C1E6FFEE0E146E65
:100CB000290E156E166A14C0E6FF15C0E6FF16C0B1
:100CC000E6FF000EE66E0F0EE66E50EC1FF0176E9C
:100CD000070EE15E1750000EE66E0F0EE66E000E78
:100CE000E66E020EE66EF90E146E290E156E166A89
:100CF00014C0E6FF15C0E6FF16C0E6FF000EE66E64
:100D0000020EE66E50EC1FF0176E090EE15E1750F2
:100D10000101B61D01E1B71D39E00F012F0E006F73
:100D2000B6C1E6FFB7C1E6FFE30E146E290E156EDD
:100D3000166A14C0E6FF15C0E6FF16C0E6FF000EF7
:100D4000E66E0F0EE66E50EC1FF0176E070EE15EBA
:100D50001750000EE66E0F0EE66E000EE66E020EE7
:100D6000E66EF90E146E290E156E166A14C0E6FFB3
:100D700015C0E6FF16C0E6FF000EE66E020EE66E38
:100D800050EC1FF0176E090EE15E17500101B81DFF
:100D900001E1B91D39E00F012F0E006FB8C1E6FF68
:100DA000B9C1E6FFD80E146E290E156E166A14C06E
:100DB000E6FF15C0E6FF16C0E6FF000EE66E0F0E5A
:100DC000E66E50EC1FF0176E070EE15E1750000E36
:100DD000E66E0F0EE66E000EE66E020EE66EF90E81
:100DE000146E290E156E166A14C0E6FF15C0E6FFD4
:100DF00016C0E6FF000EE66E020EE66E50EC1FF027
:100E0000176E090EE15E17500101BA1D01E1BB1D0D
:100E100039E00F012F0E006FBAC1E6FFBBC1E6FF3C
:100E2000CD0E146E290E156E166A14C0E6FF15C09D
:100E3000E6FF16C0E6FF000EE66E0F0EE66E50EC03
:100E40001FF0176E070EE15E1750000EE66E0F0ED4
:100E5000E66E000EE66E020EE66EF90E146E290EB8
:100E6000156E166A14C0E6FF15C0E6FF16C0E6FF51
:100E7000000EE66E020EE66E50EC1FF0176E090EC5
:100E8000E15E17500101BC1D01E1BD1D39E00F01FC
:100E90002F0E006FBCC1E6FFBDC1E6FFC20E146E8F
:100EA000290E156E166A14C0E6FF15C0E6FF16C0BF
:100EB000E6FF000EE66E0F0EE66E50EC1FF0176EAA
:100EC000070EE15E1750000EE66E0F0EE66E000E86
:100ED000E66E020EE66EF90E146E290E156E166A97
:100EE00014C0E6FF15C0E6FF16C0E6FF000EE66E72
:100EF000020EE66E50EC1FF0176E090EE15E175001
:100F00000101BE1D01E1BF1D39E00F012F0E006F71
:100F1000BEC1E6FFBFC1E6FFB70E146E290E156E07
:100F2000166A14C0E6FF15C0E6FF16C0E6FF000E05
:100F3000E66E0F0EE66E50EC1FF0176E070EE15EC8
:100F40001750000EE66E0F0EE66E000EE66E020EF5
:100F5000E66EF90E146E290E156E166A14C0E6FFC1
:100F600015C0E6FF16C0E6FF000EE66E020EE66E46
:100F700050EC1FF0176E090EE15E1750120026ECC0
:100F800000F039DC16EF05F0D9CFE6FFE1CFD9FF4D
:100F9000FE0EDBCFAFF126EC00F02DDC47DD2ACFD3
:100FA000F3FF2BCFF4FF00D0E552E7CFD9FF1200BB
:0A0FB000948C948E958C958E12009F
:060FBA0019EC0DF0FB0E26
:100FC000DBCFF3FFDB06F35000090AE067EC0DF01E
:100FD000FA0ED2EC0DF0F3E1151CF1E1010E01D097
:100FE000000E48EF0DF019EC0DF03B0EE12402E38A
:100FF000E168E652E16E010EDB6A020EDB6AF90E71
:10100000DBCFF6FFFA0EDBCFF7FFFB0EDBCFF8FFEF
:101010000800F550DF6EDF5002E16CEF0CF0250E9A
:10102000DF5C02E05FEF0CF0030EDB6A040EDB6AAC
:10103000050EDB6A060EDB6A070EDB6A81EC0CF03C
:101040002D0EDF5C0CE02B0EDF5C09E0200EDF5C78
:1010500006E0230EDF5C03E0300EDF5C1AE1DF50B8
:10106000300A14E0130A0FE0030A0AE00B0A05E055
:10107000060AE4E1030EDB80E1D7030EDB82DED754
:10108000030EDB84DBD7030EDB86D8D7030EDB88A9
:10109000D5D72A0EDF5C1BE17DEC0CF0CBEC0CF01D
:1010A00010E0030EDB8006680768130EDBCF0DF03F
:1010B000140EDBCF0EF0FFEC20F0040E04C0DBFFBB
:1010C00003D0130EB4EC0CF081EC0CF00BD0090E35
:1010D000DB6A22EC0DF003E096EC0DF0FAD7090E76
:1010E000B4EC0CF0030EDBB0DB982E0EDF5C1BE1E2
:1010F00081EC0CF02A0EDF5C0BE17DEC0CF0CBEC0C
:101100000CF003E1130E06EC0DF081EC0CF00BD0AB
:10111000090EDB6A22EC0DF003E096EC0DF0FAD735
:10112000090E06EC0DF0680EDF5C07E181EC0CF0B7
:10113000680EDF5C1DE1030E18D0740EDF5C17E053
:101140007A0EDF5C14E0480EDF5C06E0540EDF5CD4
:1011500003E05A0EDF5C02E1020E07D06C0EDF5C8A
:1011600003E06A0EDF5C04E1010E59EC0DF0C9DB0F
:10117000DF506E0A01E17FD31E0A01E192D1200AFD
:1011800001E18FD13F0A01E149D11A0A01E146D1BB
:101190000D0A01E143D1200A01E140D13A0A01E1FF
:1011A0003DD1200A01E13AD1260A01E135D10D0AEB
:1011B00001E132D11A0A01E1D9D0200A4AE0300A0D
:1011C0001FE0460A0EE0250A01E083D3D950F90F4B
:1011D000E96EFF0EDA20EA6E010EEE5E000EEE5AA8
:1011E000EE5A67EC0DF0250EE66E95DB03E1151C5B
:1011F00001E169D363EC0DF001E26BD3DB2A69D323
:10120000080EDB6A040EDB50010806E2040EDB0464
:101210002BEC0DF0DB508BDB080EDB5009E0030EEE
:10122000DB50010B05E172DB01E04DD3080EDB6AF8
:1012300064DBEFCFDFFFDBEC0DF003E1151C01E118
:1012400042D363EC0DF001E3DB2A60DB01E141D323
:101250003AD3070EDB5002080FE1A7EC0DF0030EA6
:101260006EEC0DF00E0EEECFDBFF0F0EEECFDBFFC0
:10127000100EEECFDBFF20D0F70EDBCF17F0F80E0D
:10128000DBCF18F0020E175E000E185AF70E17C0CB
:10129000DBFFF80E18C0DBFF17C0E9FF18C0EAFF3C
:1012A0005EEC0DF0166A0E0E14C0DBFF0F0E15C0BB
:1012B000DBFF100E16C0DBFF0E0EDBCFE6FF0F0EBE
:1012C000DBCFE6FF100EDBCFE6FF2BEC1FF0E55285
:1012D000E552E552130E05C0DBFF140E06C0DBFF1E
:1012E000060EDB5005E0130EA2EC0DF001E26ADB06
:1012F000C6EC0DF002E2130E37DB89EC0DF006E0D0
:10130000040EA2EC0DF002E2050E2EDB030EDBB0A4
:1013100005D0FCDA01E0D7D2080EDB6A090EDB6AE1
:101320000E0EDBCFF6FF0F0EDBCFF7FF100EDBCF7D
:10133000F8FF0800F550DF6EDF5014E0CCEC0DF044
:1013400011E2DBEC0DF003E1151C01E1BCD2BBDBCB
:1013500001E3DB2A090EDB2AD9500E0FE96E000EDD
:10136000CBDBE7D7D3DA01E1B4D2ADD2C6DA110EC6
:10137000EECFDBFF120EEDCFDBFF110EDBCFE6FF72
:10138000120EDBCFE6FFFAEC1EF0E552E552130E2B
:10139000F3CFDBFF140EF4CFDBFF060EDB5004E0CF
:1013A000130ED0DB01E20EDBC6EC0DF002E2130EF1
:1013B000DBDAAFDB05E0040EC5DB02E2050ED4DAB2
:1013C000030EDBB005D0A2DA01E07DD2080EDB6AA5
:1013D000090EDB6A110EDBCFE9FF120EDBCFEAFF4D
:1013E000EFCFDFFFDF5014E0D7DB12E2E4DB03E1F5
:1013F000151C01E168D267DB01E3DB2A090EDB2A59
:10140000110EDB2ADBCFE9FF120EE8E3DB2AE6D779
:101410007DDA01E15ED257D2030EDB8E070EDB04CC
:1014200010E195DB040E5ADB0A0EEECFDBFF0B0E4C
:10143000EECFDBFF0C0EEECFDBFF0D0EEECFDBFFB2
:101440006CD0070EDB5003082CE1030EDBAE0DD091
:10145000B2DA020E76DAEFCF14F0156A166A176A5E
:1014600014AE39D01568166835D0F70EDBCF15F0FD
:10147000F80EDBCF16F0020E155E000E165AF70EB0
:1014800015C0DBFFF80E16C0DBFF15C0E9FF16C064
:10149000EAFFEFCF14F00A0E14C0DBFF0B0EDB6A7D
:1014A00038D0070EDB50020809E1030EDBAE04D092
:1014B00059DB16AE10D00ED055DB0DD0030EDBAECF
:1014C00012D079DA020E3DDAF9DA166A176A15AE29
:1014D00002D016681768E2DA0C0E16C0DBFF0D0E9C
:1014E00017C0DBFF1AD0F70EDBCF16F0F80EDBCFFC
:1014F00017F0020E165E000E175AF70E16C0DBFF2D
:10150000F80E17C0DBFF16C0E9FF17C0EAFFD6DAF6
:10151000C5DA0C0EDB6A0D0EDB6A060EDB5005E148
:10152000010EF36E050EF3CFDBFF150EDB6A160E10
:10153000DB6AD950370F146E000EDA20156E390EA3
:1015400014C0DBFF3A0E15C0DBFF380EDB6A080E55
:10155000DB6A0A0EAEDADF50780A12E0200A10E0E9
:10156000280A0CE0200A0AE03F0A06E00D0A02E021
:10157000200A08E1020E05D0080E03D0080EDF266F
:10158000100E97DA030EDBBE02D0DB92DB94DB5049
:10159000800B24E08ADAD890030EEB50000A08E6AC
:1015A000000EEE5C000EEE58000EEE58000EEE58E7
:1015B00015E213DA0B680C680D680E68C7EC20F0B2
:1015C0000A0E00C0DBFF0B0E01C0DBFF0C0E02C0D9
:1015D000DBFF0D0E03C0DBFF2D0E08D0030EDBA2D8
:1015E00002D02B0E03D0DBA408D0200EF36E170E12
:1015F000F3CFDBFF150EDB2A02D0170EDB6A050ED8
:10160000DB5003E1B7D901E189D0620E146E430EBD
:10161000156E000E166E070EDBCF17F0186A196AEA
:101620001A6A17C00BF018C00CF019C00DF01AC0E0
:101630000EF0D3D92CEC21F014500024F36E155089
:101640000120F46E16500220F86EF4CFF7FFF3CFAE
:10165000F6FF0800090EF5CFDBFF580EDF5C0FE147
:10166000610EF36E090E7BD90AE3200E146E090E8B
:10167000DBCFE7FF1450E75E090EE7CFDBFF070E75
:10168000DBCF14F0156A166A176A0FDA14C00BF074
:1016900015C00CF016C00DF017C00EF0EECF04F020
:1016A000EECF05F0EECF06F0EFCF07F02CEC21F0F7
:1016B00007C0EDFF06C0EDFF05C0EDFF04C0EFFF62
:1016C000390EDBCFE9FFDB063A0EDBCFEAFF01E2A2
:1016D000DB06090EDBCFEFFF150EDB2A4BD995E1B8
:1016E000030EDBA61DD06F0EDF5C06E1C1D918E347
:1016F000150EDB285BDA14D0780EDF5C09E0580E9B
:10170000DF5C06E0620EDF5C03E0420EDF5C08E1B6
:10171000020EF36E160EF3CFDBFF02D0150EDB6A5E
:10172000030EDB50100B0EE0040EDBCF14F0050EA1
:10173000DB50D880145406E2060EDB5003E1040EA1
:10174000DB5034DA95D90AE2050EDBCFE7FF150E40
:10175000DB50E75E050EE7CFDBFF02D0050EDB6A4C
:10176000040EDBCF14F0160E45D9D880145414E2C1
:10177000160EDBCFE6FF150EDBCFE6FF040EDBCF48
:10178000E6FF050EDB50E552E75CE552D880E754F2
:10179000E552D880E7545FD9030EDB50010B0BE113
:1017A000080EDB5008E0B2D801E08DD0080EDB5007
:1017B000BED8080EDB6A170EDB5007E088D9170E7B
:1017C000F1D903E1151C01E17ED0160EDB5016E0C5
:1017D0007ED9300EE66E9FD802E1151C74E077D9F1
:1017E000DFCFE6FF85EC20F0E552E552E552F4CF7D
:1017F00015F00001F31C02E1151C65E0050EDBCFBE
:1018000014F0160EDB50D880145409E2050EDBCF1D
:10181000E7FF160EDB50E75E050EE7CFDBFF300E6D
:10182000E66E050ECBD94FE1390EDB2ADBCFE9FF9F
:101830003A0E01E3DB2ADBCFEAFF090EEFCFDBFF35
:10184000DB500EE044D9090EADD902E1151C3BE096
:10185000390EDB2ADBCFE9FF3A0EEDE3DB2AEBD7CB
:1018600055D831E1160EDBCFE6FF080EC3D8E5529E
:10187000E7245DD82ED0070EDB50030A1CE0010AD6
:1018800014E0030A07E07BD9DBCFEEFF020EDBCFCB
:10189000EDFF1FD0F5D8196A17AE02D01868196885
:1018A0002CD8BCD819C0EEFF14D0EAD817BE1868DF
:1018B00024D8B4D80ED063D9DBCFEFFF0AD07BD9C0
:1018C00005E1151C03E1F368F46810D0FCD801E3CE
:1018D000DB2A79D908EF08F0010EDBCF14F0020EF5
:1018E000DBCF15F014C0F3FF15C0F4FF3B0EE15C35
:1018F00002E2E16AE552E16ECBD029D9020E6EEF29
:101900000DF061D90800F550DF6E1200200EE66E72
:10191000080EDEEF0DF085EC20F0E552E552E552C1
:10192000F3CF14F0F4CF15F00001F31C1200146E85
:10193000156AD950010F4DD91450EE261550ED22DD
:101940001200185E000E195AF70E18C0DBFFF80ED1
:1019500019C0DBFF18C0E9FF19C0EAFF1200DBCF96
:10196000F4FFF350F45C1200DB50E76E040EE7CF97
:10197000DBFF12000A0EDBCF14F00B0EDBCF15F0ED
:101980000C0EDBCF16F00D0EDBCF17F01450151038
:10199000161017101200130EEECFDBFF140EEDCF52
:1019A000DBFF130EDBCF14F0140EDBCF15F00001BC
:1019B000800E15141200F70EDBCF18F0F80EDBCFF7
:1019C00019F01200050EDB50E66ED950130F01D945
:1019D000E552E750EE6EED6A12000A0EDBCF04F01E
:1019E0000B0EDBCF05F00C0EDBCF06F00D0EDBCFC0
:1019F00007F01200DBCFE6FF150EDBCFE6FF050E8A
:101A0000DB50E552E724E552E7241200DB50CED844
:101A1000010EF36E060EF3CFDBFF1200EE50EFCF98
:101A2000EAFFE96E16C0EEFF17C0EEFF18C0EEFF2A
:101A30001200D9CFE6FFDACFE6FFE1CFD9FFE2CF40
:101A4000DAFF1200DFCFE6FFE66A73EC21F0E55221
:101A5000E552F3501200E76E080EE7CFDBFF1200ED
:101A6000EECF14F0EECF15F0EFCF16F0176A12009C
:101A7000050EDBCF14F0150EDB50D8801454120085
:101A8000010EDBCF16F0020EDBCF17F0186A120042
:101A9000E552E5CFDAFFE7CFD9FF12000A0E14C0F6
:101AA000DBFF0B0E15C0DBFF1200D9500A0FE9EF68
:101AB0000DF0F36E070EF3CFDBFF1200EECF14F044
:101AC000EFCF15F01200010EDB2A020E1200FC0E01
:101AD000DBCFE6FFFD0EDBCFE6FF1200145E000E4B
:101AE000155AF70E14C0DBFFF80E15C0DBFF14C04B
:101AF000E9FF15C0EAFF1200DA20EA6EEF2AEECF06
:101B0000F6FF000EEF22EECFF7FFEF22EECFF8FF49
:101B10001200040EDBCFE6FF130EDB50E552E75C4C
:101B20009ADFDB5004DF060EDB501200090EDB509B
:101B30000A0DF350DF24D00FE76E090EE7CFDBFF6D
:101B400081EF0CF0DB50F36E050EAFEF0CF0F70EEB
:101B5000DBCF14F0F80EDBCF15F01200DFCFE6FF7D
:101B60008BEF0CF028DF030EECDE30EF0DF0DDEC38
:101B700007F0E552E552E552E55200091200BDDEDC
:101B8000EE50EFCFEAFFE96E010E1200130EDB50AC
:101B9000F36E040EAFEF0CF0040EDB50F36E090E83
:101BA000AFEF0CF0DBCFE6FF8BEF0CF0E76E050E2E
:101BB000E7CFDBFF12008BDFAEEF0DF0DBCFE6FFF0
:101BC00086DFB7EF0DF0D950F90FE96EFF0E7CEF0D
:0C1BD0000DF0E96E000EDA20EA6E120043
:041BDC00F29EF29CE7
:101BE0001200F28EF28C1200D9CFE6FFE1CFD9FFBE
:101BF000FE0EDB0404E19D8A9F8AF3DF03D09D9AE9
:101C00009F8AECDFE552E7CFD9FF1200D9CFE6FF7C
:101C1000E1CFD9FF400EE126020EDB6A030EDB6A3C
:101C2000040EDB6A050EDB6A0A0EF36E0B0EF3CFB1
:101C3000DBFF050EF36E0C0EF3CFDBFF0D0EDB6A40
:101C40001A0EDB6A1D0EDB6A1E0EDB6A1F0EDB6AD4
:101C5000200EDB6A210EDB6A220EDB6A230EDB6AB2
:101C6000240EDB6A300EF36E3B0EF3CFDBFF300E3B
:101C7000F36E3C0EF3CFDBFF570EF36E3D0EF3CF4A
:101C8000DBFF300EF36E3E0EF3CFDBFF300EF36E54
:101C90003F0EF3CFDBFF0F01386B396B92909292BE
:101CA000929492969298929AA30E146E290E156EA3
:101CB000166A14C0E6FF15C0E6FF16C0E6FFF5EC95
:101CC0001FF0E552E552E55215EC1CF0940E146E2F
:101CD000290E156E166A14C0E6FF15C0E6FF16C081
:101CE000E6FFC00EE66E010EE66EE1EC1EF0176E2A
:101CF000050EE15E1750E66A010EE66EF6EC1BF08B
:101D0000E552E552C00EE66E010EE66EE9EC1AF001
:101D1000E552E552E80EE66E030EE66E7CEC1DF031
:101D2000E552E552010EE66E5FDFE552750E146E68
:101D3000290E156E166A14C0E6FF15C0E6FF16C020
:101D4000E6FFF5EC1FF0E552E552E5520201FB0516
:101D500001E0FCD7FB6B010EE66EC2C2E6FF67EC4A
:101D60001CF0E552E552010EE66EC3C2E6FF67ECD9
:101D70001CF0E552E552420E0201C25D01E08BD03B
:101D8000550EC35D3AE1640E146E290E156E166A87
:101D900014C0E6FF15C0E6FF16C0E6FFC00EE66EF3
:101DA000010EE66EE1EC1EF0176E050EE15E1750B7
:101DB000E66A010EE66EF6EC1BF0E552E552C00E47
:101DC000E66E010EE66EE9EC1AF0E552E552020EFF
:101DD000E66EC1EC1DF0E552490E146E290E156E2B
:101DE000166A14C0E6FF15C0E6FF16C0E6FFF5EC64
:101DF0001FF0E552E552E5524DD0440EC35D3AE185
:101E0000370E146E290E156E166A14C0E6FF15C043
:101E1000E6FF16C0E6FFC00EE66E010EE66EE1ECD0
:101E20001EF0176E050EE15E1750E66A010EE66EB3
:101E3000F6EC1BF0E552E552C00EE66E010EE66EC2
:101E4000E9EC1AF0E552E552020EE66EC1EC1DF027
:101E5000E552190E146E290E156E166A14C0E6FFAF
:101E600015C0E6FF16C0E6FFF5EC1FF0E552E5529F
:101E7000E55210D0010E146E290E156E166A14C0AC
:101E8000E6FF15C0E6FF16C0E6FFF5EC1FF0E552D1
:101E9000E552E552F2D2440EC25D01E08BD04F0E06
:101EA000C35D3AE1F00E146E280E156E166A14C06A
:101EB000E6FF15C0E6FF16C0E6FFC00EE66E010E97
:101EC000E66EE1EC1EF0176E050EE15E1750E66A55
:101ED000010EE66EF6EC1BF0E552E552C00EE66E22
:101EE000010EE66EE9EC1AF0E552E552020EE66EDE
:101EF000C1EC1DF0E552CE0E146E280E156E166A5A
:101F000014C0E6FF15C0E6FF16C0E6FFF5EC1FF0B3
:101F1000E552E552E5524DD0430EC35D3AE1BD0EA8
:101F2000146E280E156E166A14C0E6FF15C0E6FF83
:101F300016C0E6FFC00EE66E010EE66EE1EC1EF086
:101F4000176E050EE15E1750E66A010EE66EF6ECBE
:101F50001BF0E552E552C00EE66E010EE66EE9ECAE
:101F60001AF0E552E552020EE66EC1EC1DF0E552A4
:101F70009A0E146E280E156E166A14C0E6FF15C070
:101F8000E6FF16C0E6FFF5EC1FF0E552E552E5521C
:101F900010D07F0E146E280E156E166A14C0E6FF60
:101FA00015C0E6FF16C0E6FFF5EC1FF0E552E5525E
:101FB000E55263D24C0EC25D01E08BD04E0EC35D84
:101FC0003AE16E0E146E280E156E166A14C0E6FF06
:101FD00015C0E6FF16C0E6FFC00EE66E010EE66E07
:101FE000E1EC1EF0176E050EE15E1750E66A010E79
:101FF000E66EF6EC1BF0E552E552C00EE66E010E01
:10200000E66EE9EC1AF0E552E552020EE66EC1EC1E
:102010001DF0E5524F0E146E280E156E166A14C090
:10202000E6FF15C0E6FF16C0E6FFF5EC1FF0E5522F
:10203000E552E5524DD0460EC35D3AE13E0E146EB8
:10204000280E156E166A14C0E6FF15C0E6FF16C00E
:10205000E6FFC00EE66E010EE66EE1EC1EF0176EB6
:10206000050EE15E1750E66A010EE66EF6EC1BF017
:10207000E552E552C00EE66E010EE66EE9EC1AF08E
:10208000E552E552020EE66EC1EC1DF0E5521E0E61
:10209000146E280E156E166A14C0E6FF15C0E6FF12
:1020A00016C0E6FFF5EC1FF0E552E552E55210D000
:1020B000040E146E280E156E166A14C0E6FF15C0C5
:1020C000E6FF16C0E6FFF5EC1FF0E552E552E552DB
:1020D000D4D14D0EC25D01E042D1520EC35D3AE152
:1020E000F30E146E270E156E166A14C0E6FF15C0A7
:1020F000E6FF16C0E6FFC00EE66E010EE66EE1ECEE
:102100001EF0176E050EE15E1750E66A010EE66ED0
:10211000F6EC1BF0E552E552C00EE66E010EE66EDF
:10212000E9EC1AF0E552E552020EE66EC1EC1DF044
:10213000E552D40E146E270E156E166A14C0E6FF13
:1021400015C0E6FF16C0E6FFF5EC1FF0E552E552BC
:10215000E55204D1470EC35D3AE1C30E146E270E5B
:10216000156E166A14C0E6FF15C0E6FF16C0E6FF3E
:10217000C00EE66E010EE66EE1EC1EF0176E050E67
:10218000E15E1750E66A010EE66EF6EC1BF0E552D2
:10219000E552C00EE66E010EE66EE9EC1AF0E5526D
:1021A000E552020EE66EC1EC1DF0E552A20E146E71
:1021B000270E156E166A14C0E6FF15C0E6FF16C09E
:1021C000E6FFF5EC1FF0E552E552E552C7D0420EAE
:1021D000C35D3AE1900E146E270E156E166A14C098
:1021E000E6FF15C0E6FF16C0E6FFC00EE66E010E64
:1021F000E66EE1EC1EF0176E050EE15E1750E66A22
:10220000010EE66EF6EC1BF0E552E552C00EE66EEE
:10221000010EE66EE9EC1AF0E552E552020EE66EAA
:10222000C1EC1DF0E552700E146E270E156E166A85
:1022300014C0E6FF15C0E6FF16C0E6FFF5EC1FF080
:10224000E552E552E5528AD0590EC35D3AE15F0E80
:10225000146E270E156E166A14C0E6FF15C0E6FF51
:1022600016C0E6FFC00EE66E010EE66EE1EC1EF053
:10227000176E050EE15E1750E66A010EE66EF6EC8B
:102280001BF0E552E552C00EE66E010EE66EE9EC7B
:102290001AF0E552E552020EE66EC1EC1DF0E55271
:1022A0003D0E146E270E156E166A14C0E6FF15C09B
:1022B000E6FF16C0E6FFF5EC1FF0E552E552E552E9
:1022C0004DD0570EC35D3AE12C0E146E270E156EDD
:1022D000166A14C0E6FF15C0E6FF16C0E6FFC00E82
:1022E000E66E010EE66EE1EC1EF0176E050EE15E85
:1022F0001750E66A010EE66EF6EC1BF0E552E55269
:10230000C00EE66E010EE66EE9EC1AF0E552E552FB
:10231000020EE66EC1EC1DF0E5520A0E146E270E99
:10232000156E166A14C0E6FF15C0E6FF16C0E6FF7C
:10233000F5EC1FF0E552E552E55210D0E80E146EB0
:10234000260E156E166A14C0E6FF15C0E6FF16C00D
:10235000E6FFF5EC1FF0E552E552E5528ED0460E51
:10236000C25D01E08AD04E0EC35D3AE1D70E146E15
:10237000260E156E166A14C0E6FF15C0E6FF16C0DD
:10238000E6FFC00EE66E010EE66EE1EC1EF0176E83
:10239000050EE15E1750E66A010EE66EF6EC1BF0E4
:1023A000E552E552C00EE66E010EE66EE9EC1AF05B
:1023B000E552E552020EE66EC1EC1DF0E552B80E94
:1023C000146E260E156E166A14C0E6FF15C0E6FFE1
:1023D00016C0E6FFF5EC1FF0E552E552E5524DD090
:1023E000460EC35D3AE1A70E146E260E156E166AF0
:1023F00014C0E6FF15C0E6FF16C0E6FFC00EE66E8D
:10240000010EE66EE1EC1EF0176E050EE15E175050
:10241000E66A010EE66EF6EC1BF0E552E552C00EE0
:10242000E66E010EE66EE9EC1AF0E552E552020E98
:10243000E66EC1EC1DF0E552870E146E260E156E89
:10244000166A14C0E6FF15C0E6FF16C0E6FFF5ECFD
:102450001FF0E552E552E55210D06F0E146E260EB5
:10246000156E166A14C0E6FF15C0E6FF16C0E6FF3B
:10247000F5EC1FF0E552E552E552410E0201C25D56
:1024800001E08AD04E0EC35D3AE15D0E146E260E59
:10249000156E166A14C0E6FF15C0E6FF16C0E6FF0B
:1024A000C00EE66E010EE66EE1EC1EF0176E050E34
:1024B000E15E1750E66A010EE66EF6EC1BF0E5529F
:1024C000E552C00EE66E010EE66EE9EC1AF0E5523A
:1024D000E552020EE66EC1EC1DF0E5523C0E146EA4
:1024E000260E156E166A14C0E6FF15C0E6FF16C06C
:1024F000E6FFF5EC1FF0E552E552E5524DD0460EF1
:10250000C35D3AE12B0E146E260E156E166A14C0CA
:10251000E6FF15C0E6FF16C0E6FFC00EE66E010E30
:10252000E66EE1EC1EF0176E050EE15E1750E66AEE
:10253000010EE66EF6EC1BF0E552E552C00EE66EBB
:10254000010EE66EE9EC1AF0E552E552020EE66E77
:10255000C1EC1DF0E5520A0E146E260E156E166AB9
:1025600014C0E6FF15C0E6FF16C0E6FFF5EC1FF04D
:10257000E552E552E55210D0F00E146E250E156EA0
:10258000166A14C0E6FF15C0E6FF16C0E6FFF5ECBC
:102590001FF0E552E552E55296EF0EF0400EE15C79
:1025A00002E2E16AE552E16EE552E7CFD9FF12009F
:1025B0002020494F5420504C4154464F524D20202A
:1025C0000041505349532020534F4C5554494F4ECE
:1025D00053004920616D20776F726B696E670A0046
:1025E00054696D65722054696D654F75740A0D00EC
:1025F000616C61726D20636F6D6D616E64206E6FD2
:102600007420666F756E640A0D0020414C41524D76
:10261000204F46462020636F6D6D616E64207265A9
:10262000636F676E697365640A0D00202020204186
:102630004C41524D204F46462020200020414C4125
:10264000524D204F4E202020636F6D6D616E6420CF
:102650007265636F676E697365640A0D00202020E0
:102660002020414C41524D204F4E2020202000661A
:10267000616E20636F6D6D616E64206E6F74206695
:102680006F756E640A0D002046414E204F4646206D
:102690002020636F6D6D616E64207265636F676E7D
:1026A000697365640A0D002020202046414E204FAA
:1026B00046462020202020002046414E204F4E201C
:1026C0002020636F6D6D616E64207265636F676E4D
:1026D000697365640A0D00202020202046414E20A9
:1026E0004F4E202020202000206D6F6F6473206CDF
:1026F000696768747320636F6D6D616E64206E6FBF
:102700007420666F756E640A0D00204D4F4F442093
:1027100057484954452020636F6D6D616E64207287
:1027200065636F676E697365640A0D002020204D34
:102730004F4F4420574849544520202000204D4FFA
:102740004F442059454C4C4F5720636F6D6D616E5F
:1027500064207265636F676E697365640A0D00209B
:1027600020204D4F4F442059454C4C4F57202000BE
:10277000204D4F4F4420424C554520636F6D6D6195
:102780006E64207265636F676E697365640A0D001D
:10279000202020204D4F4F4420424C5545202020E2
:1027A0002000204D4F4F4420475245454E20636F37
:1027B0006D6D616E64207265636F676E69736564C9
:1027C0000A0D002020204D4F4F4420475245454ED2
:1027D00020202000204D4F4F442052454420636F5D
:1027E0006D6D616E64207265636F676E6973656499
:1027F0000A0D00202020204D4F4F442052454420F8
:10280000202020006C6967687420636F6D6D616EB5
:1028100064206E6F7420666F756E640A0D00204C24
:1028200049474854204F464620636F6D6D616E6482
:10283000207265636F676E697365640A0D002020FE
:1028400020204C49474854204F4646202020002055
:102850004C49474854204F4E20636F6D6D616E6444
:10286000207265636F676E697365640A0D002020CE
:1028700020204C49474854204F4E20202020006201
:102880006C696E647320636F6D6D616E64206E6F32
:102890007420666F756E640A0D0020424C494E44E8
:1028A0005320434C4F534520636F6D6D616E642020
:1028B0007265636F676E697365640A0D002020425C
:1028C0004C494E445320434C4F5345202000204256
:1028D0004C494E4453204F50454E20636F6D6D61FF
:1028E0006E64207265636F676E697365640A0D00BC
:1028F0002020424C494E4453204F50454E2020202A
:102900000062656420636F6D6D616E64206E6F742C
:1029100020666F756E640A0D0042454420444F578F
:102920004E20636F6D6D616E64207265636F676EBC
:10293000697365640A0D002020202042454420442C
:102940004F574E2020202020004245445550206300
:102950006F6D6D616E64207265636F676E6973651C
:10296000640A0D002020202020424544205550209C
:1029700020202020000A0D2057616974696E6720AD
:10298000666F7220436F6D6D616E64732E2E2E2EF6
:10299000200A0D0050524F4752414D20535441528E
:1029A00054530070726F6772616D20626567696E63
:1029B000732E2E2E0A0D00266669656C64383D253F
:1029C0006400266669656C64373D25640026666987
:1029D000656C64363D256400266669656C64353D2A
:1029E000256400266669656C64343D2564002666AE
:1029F00069656C64333D2564002573257300266684
:102A000069656C64323D256400266669656C6431D5
:102A10003D25640043757272656E742056616C7555
:102A20006520696E20746865204669656C642025A0
:102A30006420206F66204368616E6E656C206E7541
:102A40006D6265722025732069732025730A0D005D
:102A500067756E4461746146726F6D4669656C643A
:102A6000733D2025640A0D007563686669656C64B2
:102A7000446174613D2025730A0D0041542B434984
:102A80005053454E443D25640D0A000D0A0D0A4180
:102A900063636570743A202A2F2A0A0D002F636839
:102AA000616E6E656C732F25732F6669656C647338
:102AB0002F25642F6C6173742E6A736F6E00474507
:102AC000542068747470733A2F2F00256400446595
:102AD0007669636520697320636F6E6E65637465E4
:102AE0006420746F206E6574776F726B0A0D004CF2
:102AF00045445F57484954450A0D004C45445F42E0
:102B00004C55450A0D004C45445F59454C4C4F57B8
:102B10000A0D004C45445F475245454E0A0D004C96
:092B200045445F5245440A0D00D2
:062B2A001F0E146E2B0EBD
:102B3000156E166A14C0E6FF15C0E6FF16C0E6FF64
:102B4000F5EC1FF0E552E552E55293920201FC6963
:102B5000FE6BFD6BFC0EE66E020EE66E77D8E5525C
:102B6000E5521200130E146E2B0E156E166A14C069
:102B7000E6FF15C0E6FF16C0E6FFF5EC1FF0E552D4
:102B8000E552E55293920201FC6BFE69FD6BFC0E6F
:102B9000E66E020EE66E5AD8E552E5521200060EB7
:102BA000146E2B0E156E166A14C0E6FF15C0E6FFF4
:102BB00016C0E6FFF5EC1FF0E552E552E5529392A0
:102BC0000201FC69FE69FD6BFC0EE66E020EE66E0C
:102BD0003DD8E552E5521200FB0E146E2A0E156E1A
:102BE000166A14C0E6FF15C0E6FF16C0E6FFF5EC56
:102BF0001FF0E552E552E55293920201FC6BFE6B29
:102C0000FD69FC0EE66E020EE66E20D8E552E55236
:102C10001200EF0E146E2A0E156E166A14C0E6FF2F
:102C200015C0E6FF16C0E6FFF5EC1FF0E552E552D1
:102C3000E55293920201FC69FE69FD69FC0EE66EA5
:102C4000020EE66E03D8E552E5521200D9CFE6FF38
:102C5000E1CFD9FF0C0EE126FD0EDBCFE9FFFE0E22
:102C6000DBCFEAFFEE52EF50E66E17D9E55204C013
:102C700018F005C019F006C01AF007C01BF0100EBE
:102C80001F0B07E0D890183619361A361B36E8069F
:102C9000F9E118C0E6FF19C0E6FF1AC0E6FF1BC045
:102CA000E6FFFD0EDBCFE9FFFE0EDBCFEAFFEF50C4
:102CB000E66EF3D8E552E552E7CF1BF0E552E7CFD9
:102CC0001AF0E552E7CF19F0E552E7CF18F004C04B
:102CD0001CF005C01DF006C01EF007C01FF0080E56
:102CE0001F0B07E0D8901C361D361E361F36E8062F
:102CF000F9E11C5018261D5019221E501A221F508F
:102D00001B2218C0E6FF19C0E6FF1AC0E6FF1BC071
:102D1000E6FFFD0EDBCFE9FFFE0EDBCFEAFF020E82
:102D2000E926000EEA22EF50E66EB7D8E552E552EA
:102D3000E7CF1BF0E552E7CF1AF0E552E7CF19F0E5
:102D4000E552E7CF18F018500424146E19500520EE
:102D5000156E1A500620166E1B500720176E040EB3
:102D600014C0DBFF050E15C0DBFF060E16C0DBFF2F
:102D7000070E17C0DBFFD950040FE96EDACFEAFF68
:102D8000080EEECFDBFF090EEECFDBFF0A0EEECF13
:102D9000DBFF0B0EEECFDBFF020EDB6A030EDB6AFE
:102DA000020EDBCF14F0030EDBCF15F0153404E276
:102DB00014500208000E155466E3D950080FE96E4E
:102DC000DACFEAFF040EEECFDBFF050EEECFDBFF1E
:102DD000060EEECFDBFF070EEECFDBFFDE6ADD6A0D
:102DE000DECF14F0DDCF15F0D890155004E6180EA4
:102DF000145C000E155841E2010E146E156A166A35
:102E0000176AD950040FE96EDACFEAFFEE501416B4
:102E1000EE501516EE501616EE50171614501510EB
:102E20001610171006E08182000000000000819259
:102E300002D081828192040EDBCF14F0050EDBCF2D
:102E400015F0060EDBCF16F0070EDBCF17F0D8908B
:102E50001732163215321432040E14C0DBFF050E81
:102E600015C0DBFF060E16C0DBFF070E17C0DBFF29
:102E7000DF2A010E01E3DB2AB3D7020EDB2A030EA1
:102E800001E3DB2A8DD70C0EE15C02E2E16AE55238
:102E9000E16EE552E7CFD9FF1200D9CFE6FFE1CFCF
:102EA000D9FFFE0EDB500F0B100DF3CF14F0FE0E0A
:102EB000DB50F00BE8380F0B1410E76EFE0EE7CF77
:102EC000DBFFDB50330B040DF3CF14F0FE0EDB50B1
:102ED000CC0BE840E8403F0B1410E76EFE0EE7CF46
:102EE000DBFFDB50550BE824146EFE0EDB50AA0B03
:102EF000E8407F0B1410E76EFE0EE7CFDBFFDBCF61
:102F000014F0156A166A176A14C004F015C005F0AB
:102F100016C006F017C007F000D0E552E7CFD9FF82
:022F200012009D
:0E2F2200D9CFE6FFE1CFD9FFFE0EDBCFE6FFF1
:102F30003BD8E552FD0EDB50010A11E0010A01E029
:102F400026D0C09E020EC210C26EC2B2FED7C450BE
:102F5000146E156A14C0F3FF15C0F4FF18D0C08EAC
:102F6000020EC210C26EC2B2FED7C450166E176AED
:102F700016C017F0166AC35000011624146E000E16
:102F80001720156E14C0F3FF15C0F4FF00D0E552F2
:102F9000E7CFD9FF1200010EC26E800EC16E280E5F
:102FA000C06EC050C06E1200D9CFE6FFE1CFD9FF8E
:102FB000FE0EDB501F0A01E160D1010A01E156D18A
:102FC000030A01E14CD1010A01E143D1070A01E101
:102FD00036D1010A01E12BD1030A01E11FD1010A17
:102FE00001E114D10F0A01E107D1010A01E1FBD08F
:102FF000030A01E1EFD0010A01E1E4D0070A01E18F
:10300000D8D0010A01E1CED0030A01E1C3D0010A00
:1030100001E1B9D01F0A01E1ACD0010A01E19ED063
:10302000030A01E192D0010A01E187D0070A01E118
:103030007BD0010A71E0030A67E0010A5EE00F0A33
:1030400051E0010A45E0030A39E0010A2EE0070ACF
:1030500021E0010A16E0030A0BE0010A01E015D1A4
:1030600092800F013881010EC26EC250C26E0DD126
:1030700092820F013883010EC26EC2500409C26EE3
:1030800004D192840F013885010EC26EC250080926
:10309000C26EFBD092860F01080E386F010EC26E11
:1030A000C25008090409C26EF0D0928A0F01388B11
:1030B000010EC26EC2501009C26EE7D096800F0199
:1030C0003C81010EC26EC25010090409C26EDDD0EF
:1030D00096820F013C83010EC26EC250100908098E
:1030E000C26ED3D096840F013C85010EC26EC250D1
:1030F000100908090409C26EC8D00F01040E396F07
:10310000C2502009C26EC1D00F01080E396FC250E3
:1031100020090409C26EB9D00F01020E396FC250E6
:1031200020090809C26EB1D00F01100E396FC250CC
:10313000200908090409C26EA8D00F01010E396FD9
:10314000C25020091009C26EA0D00F01200E396FA5
:10315000C250200910090409C26E97D094840F014F
:103160003A85010EC26EC250200910090809C26ECC
:103170008CD00F01080E3A6FC250200910090809BF
:103180000409C26E82D00F01100E3A6F400EC210B9
:10319000C26E7BD00F01200E3A6F400EC2100409A0
:1031A000C26E73D00F01400E3A6FC2100809C26E92
:1031B0006CD00F01800E3A6F400EC210080904094E
:1031C000C26E63D00F01010E3B6F400EC21010099A
:1031D000C26E5BD00F01020E3B6F400EC210100991
:1031E0000409C26E52D00F01040E3B6F400EC21094
:1031F00010090809C26E49D00F01080E3B6F400E3E
:10320000C210100908090409C26E3FD00F01100E48
:103210003B6F400EC2102009C26E37D00F01200E46
:103220003B6F400EC21020090409C26E2ED00F0160
:10323000400E3B6FC21020090809C26E26D00F0154
:10324000800E3B6F400EC210200908090409C26EAF
:103250001CD0400EC21020091009C26E16D0400EBC
:10326000C210200910090409C26E0FD0400EC2100E
:10327000200910090809C26E08D0400EC2102009AA
:10328000100908090409C26E00D0010E00D0E552F1
:06329000E7CFD9FF120098
:0A329600DACFE4FFE2CFDAFFE9CF60
:1032A000E4FFEACFE4FFF6CFE4FFF7CFE4FFF5CF8A
:1032B000E4FFF3CFE4FFF4CFE4FFFACFE4FF00EE46
:1032C00000F0140EE80403E3EECFE4FFFBD700EEBA
:1032D00014F00C0EE80403E3EECFE4FFFBD7E65254
:1032E0009EAA2DD0E66AF4EC0DF0E552AECFC1F205
:1032F0009E9A2A0E0201C15D22E10201F96B020EC3
:10330000F95D11E2E66A88EC1CF0E552E66E020116
:10331000F951EA6AC20FE96E020EEA22E552E7505D
:10332000EF6EF92BECD7010EFB6F0201C16B0201AE
:10333000F951EA6AC20FE96E020EEA22EF6A010E43
:10334000E66EF4EC0DF0E552E55200EE1FF00C0EC7
:10335000E80403E3E5CFEDFFFBD700EE13F0140E16
:10336000E80403E3E5CFEDFFFBD7E5CFFAFFE5CFB8
:10337000F4FFE5CFF3FFE5CFF5FFE5CFF7FFE5CFAE
:10338000F6FFE5CFEAFFE5CFE9FFE5CFDAFF110071
:10339000DACFE4FFE2CFDAFFE9CFE4FFEACFE4FFE0
:1033A000F6CFE4FFF7CFE4FFF5CFE4FFF3CFE4FF80
:1033B000F4CFE4FFFACFE4FF00EE00F0140EE804CF
:1033C00003E3EECFE4FFFBD700EE14F00C0EE804AD
:1033D00003E3EECFE4FFFBD7E652D9CFE6FFE1CF20
:1033E000D9FFE652F2A423D0F2940201F72B020196
:1033F000FF510201D880F75518E2F76BD59E020104
:10340000FF6B0201010EF86FE00E206E250E216E9B
:10341000226A20C0E6FF21C0E6FF22C0E6FFF5ECED
:103420001FF0E552E552E55202D06DEC20F0E55276
:10343000E552E7CFD9FFE55200EE1FF00C0EE8048D
:1034400003E3E5CFEDFFFBD700EE13F0140EE80425
:1034500003E3E5CFEDFFFBD7E5CFFAFFE5CFF4FFC0
:10346000E5CFF3FFE5CFF5FFE5CFF7FFE5CFF6FFBB
:10347000E5CFEAFFE5CFE9FFE5CFDAFF110002D89B
:1034800006EF0EF0BAEC21F0D20E146E250E156E7A
:10349000166A14C0E6FF15C0E6FF16C0E6FFF5EC9D
:1034A0001FF0E552E552E5520F01386B396B3A6B6C
:1034B0003B6B3C913C933C95C30E616EF19EE66A7A
:1034C00026EC1CF0E552010EE66E26EC1CF0E552EF
:1034D000CBEC17F0CBEC1BF075EC20F0010EE66E98
:1034E00092EC1DF0E552C10E146E250E156E166A93
:1034F00014C0E6FF15C0E6FF16C0E6FFC00EE66E7C
:10350000010EE66EE1EC1EF0176E050EE15E17503F
:10351000B00E146E250E156E166A14C0E6FF15C0A7
:10352000E6FF16C0E6FFD10EE66E010EE66EE1EC98
:103530001EF0176E050EE15E1750E66A010EE66E8C
:10354000F6EC1BF0E552E552C00EE66E010EE66E9B
:10355000E9EC1AF0E552E552E66A020EE66EF6EC88
:103560001BF0E552E552D10EE66E010EE66EE9EC77
:103570001AF0E552E552020EE66E92EC1DF0E552AD
:0435800015EF1CF037
:0C358400D9CFE6FFE1CFD9FF020EE1260F
:10359000DE6ADD6ADECF14F0DDCF15F0FD0EDBCF85
:1035A00016F0FE0EDBCF17F01450165C15501758AE
:1035B00006E30000DF2A010E01E3DB2AEBD7020E4F
:1035C000E15C02E2E16AE552E16EE552E7CFD9FF44
:1035D0001200D9CFE6FFE1CFD9FFFD0EDBCFE9FF27
:1035E000FE0EDBCFEAFFEF500FE0FD0EDBCFE9FF71
:1035F000FE0EDBCFEAFFEFCFFEF177D8FD0EDB2A20
:10360000FE0E01E3DB2AE9D7E552E7CFD9FF12002E
:10361000D9CFE6FFE1CFD9FFFE0EDB5016E0010166
:10362000FEAF02D08C8A01D08C9AFEAD02D08C887D
:1036300001D08C98FEAB02D08C8601D08C96FEA96E
:1036400002D08C8401D08C9415D00101FEA702D049
:103650008C8A01D08C9AFEA502D08C8801D08C98DF
:10366000FEA302D08C8601D08C96FEA102D08C8461
:1036700001D08C94E552E7CFD9FF12008C908C9248
:10368000010EE66EC5DFE552000000000000060EE8
:10369000E66EE66A77DFE552E5528C82010EE66E51
:1036A000E66A7CEC1DF0E552E5528C9200000000C9
:1036B0000000000000000000E66AAADFE5520000FA
:1036C00000000000000000000000060EE66EE66A42
:1036D00059DFE552E5528C82010EE66EE66A7CEC1B
:1036E0001DF0E552E5528C9212008C808C92010EF6
:1036F000E66E8EDFE552060EE66EE66A43DFE552C1
:10370000E5520000000000000000000000008C8274
:10371000010EE66EE66A7CEC1DF0E552E5528C92F5
:10372000000000000000000000000000060EE66E31
:10373000E66A28DFE552E552060EE66EE66A22DF0B
:10374000E552E552E66A64DFE55200000000000041
:103750008C82010EE66EE66A7CEC1DF0E552E552C5
:103760008C9212000101200EFE6F8C908C92010E43
:10377000E66E4EDFE5520000000000000000000091
:1037800000008C82010EE66EE66A7CEC1DF0E552CC
:10379000E5528C9212000F013C913B9B3B913B9375
:1037A0003B953B97959495969598959A959095927B
:1037B000010EE66E92EC1DF0E552D4DF01012C0EF5
:1037C000FE6F5CDF01010C0EFE6F58DF0101060E7B
:1037D000FE6F54DF0101010EFE6F50DF0A0EE66E30
:1037E000E66A7CEC1DF0E552E5521200D9CFE6FF07
:1037F000E1CFD9FFFE0EDB50020806E1FD0EDB50E3
:10380000C00F0101FE6F05D0FD0EDB50800F0101DE
:10381000FE6F34DF0A0EE66EE66A7CEC1DF0E552C0
:10382000E552E552E7CFD9FF12000101010EFE6F0C
:1038300025DF0A0EE66EE66A7CEC1DF0E552E552E5
:0C38400012000101F80EFE6F75EF1BF086
:04384C00D9CFE6FFEB
:10385000E1CFD9FFFE0EDB50010A1BE0010A01E0B7
:1038600030D0AC6AAB6AB86A670EAF6E948C948E37
:103870000F013A9D3A9FAC98AC84B896AB8EAC9C45
:10388000AB9CB898B89AAC8AAB889D989D9A9F8A51
:1038900018D0726A716A706A670E756E958C958E13
:1038A0000F013B9D3B9F729872847096718E729C43
:1038B000719C7098709A728A7188A398A39AA58A4D
:1038C00000D0F28EF28CE552E7CFD9FF1200D9CFAB
:1038D000E6FFE1CFD9FFFD0EDB50010A0CE0010A43
:1038E00001E012D09E98FE0EDB50AD6EACA2FED76A
:1038F000AC929E9809D0A498FE0EDB50736E72A213
:10390000FED77292A49800D0E552E7CFD9FF1200FB
:10391000D9CFE6FFE1CFD9FF020EE126FE0EDB5044
:10392000010A16E0010A01E029D09E9A9EAAFED75C
:10393000AB50040B03E1AB50020B04E0AB98AE506C
:10394000DF6EAB88AE50DF6E9E9ADF5017D016D078
:10395000A49AA4AAFED77150040B03E17150020B84
:1039600005E07198010E74CFDBFF7188010E74CFF2
:10397000DBFFA49A7188DB5001D000D0146E020ED8
:10398000E15C02E2E16AE552E16E1450E552E7CFF4
:10399000D9FF1200D9CFE6FFE1CFD9FFFC0EDB50F3
:1039A000010A1EE0010A01E037D0FD0EDBCFE9FF7E
:1039B000FE0EDBCFEAFFEF5012E0E66AFD0EDBCF32
:1039C000E9FFFE0EDBCFEAFFEF50E66E80DFE55247
:1039D000E552FD0EDB2AFE0E01E3DB2AE6D71CD002
:1039E000FD0EDBCFE9FFFE0EDBCFEAFFEF5013E069
:1039F000010EE66EFD0EDBCFE9FFFE0EDBCFEAFF28
:103A0000EF50E66E64DFE552E552FD0EDB2AFE0E56
:103A100001E3DB2AE5D700D0E552E7CFD9FF12005A
:103A2000D9CFE6FFE1CFD9FF020EE126FE0EDB5033
:103A3000010A1BE0010A01E033D09E9A9E50200B40
:103A400004E10201F80501E0F9D7AB50040B03E1F2
:103A5000AB50020B04E0AB98AE50DF6EAB88AE50BB
:103A6000DF6E9E9ADF501CD01BD0A49AA450200B6E
:103A700004E10201F80501E0F9D77150040B03E1FC
:103A80007150020B05E07198010E74CFDBFF718855
:103A9000010E74CFDBFFA49A7188DB5001D000D0F7
:103AA000146E020EE15C02E2E16AE552E16E14502E
:083AB000E552E7CFD9FF120037
:083AB800D9CFE6FFE1CFD9FFF1
:103AC000040EE126DE6ADD6ADECF14F0DDCF15F0EC
:103AD000090E145C010E155805E2DF2A010E01E300
:103AE000DB2AF2D7040EE15C02E2E16AE552E16E04
:103AF000E552E7CFD9FF1200D9CFE6FFE1CFD9FFDA
:103B0000FD0EDBCF14F0DB06FE0EDBCF15F001E27D
:103B1000DB061450151002E0CFDFF2D7E552E7CFF5
:103B2000D9FF1200D9CFE6FFE1CFD9FFE652DF6A15
:103B3000FE0EDB50DF5C20E2640EE66EE66ADCDF40
:103B4000E552E552640EE66EE66AD6DFE552E552CE
:103B5000640EE66EE66AD0DFE552E552640EE66E6C
:103B6000E66ACADFE552E552640EE66EE66AC4DF35
:103B7000E552E552DF2ADCD7E552E552E7CFD9FF1F
:103B80001200D9CFE6FFE1CFD9FF020EE126DE6AAF
:103B9000DD6ADECF14F0DDCF15F0FE0EDB50166EC1
:103BA000176A1650145C1750155809E2020EE66E9B
:103BB000B9DFE552DF2A010E01E3DB2AEAD7020E64
:103BC000E15C02E2E16AE552E16EE552E7CFD9FF3E
:023BD0001200E1
:0E3BD200D9CFE6FFE1CFD9FF020EE126DE6A71
:103BE000DD6ADECF14F0DDCF15F0D890155004E675
:103BF000050E145C000E15580EE2DECFE9FFDDCF96
:103C0000EAFFEF0EE926020EEA22EF6ADF2A010E32
:103C100001E3DB2AE6D7D950FD0FE96EFF0EDA206B
:103C2000EA6EEE50ED101CE0FD0EDB06FE0E01E22A
:103C3000DB060201EF2B0A0EEF5D11E1EF6BF02BBB
:103C40000A0EF05D0CE1F06BF12B0A0EF15D07E15D
:103C5000F16BF22B0A0EF25D02E1F26BF32BDBD774
:103C6000F1C2ECF2F0C2EDF2EFC2EEF2020EE15C54
:103C700002E2E16AE552E16EE552E7CFD9FF1200B8
:103C8000D9CFE6FFE1CFD9FFFE0EDBCFF6F202017E
:103C9000F46B640EF65D0AE3640EF65D04E3640EF5
:103CA000F65DF66F01D0F651F42BF3D7F56B0A0EE3
:103CB000F65D0AE30A0EF65D04E30A0EF65DF66FA2
:103CC00001D0F651F52BF3D7300EF427F527F62760
:083CD000E552E7CFD9FF120015
:083CD800FF0EE3CFEAFFE55205
:103CE000FF0EE3CFE9FFE552E66AE66AD9CFE6FFC9
:103CF000DACFE6FFFC0EE124D96EFF0EE220DA6E89
:103D0000E66AE66AE66A200EEF5C06E0090EEF5C02
:103D100003E0EF6603D03FD0EE50F5D72D0EEF5CF9
:103D200003E1FF0EE32A03D02B0EEF5C01E1EE501E
:103D30002F0EEF6424D03A0EEF6021D0D890F90E08
:103D4000E336FA0EE336FD0EDECFE3FFFE0EDDCFE7
:103D5000E3FFD890F90EE336FA0EE336D890F90E69
:103D6000E336FA0EE336FD0EE350DE26FE0EE35098
:103D7000DD22300EEE5CDE26000EDD22D9D7FF0EEE
:103D8000E3CFE8FFE85207E0F90EE31EE32AFA0E5C
:103D9000D8B4E306E31EE552E552E552FF0EE3CF49
:103DA000DAFFE552FF0EE3CFD9FFE552E1CFE9FF9D
:103DB000E2CFEAFFED52ED52EECFF3FFEFCFF4FF8B
:023DC0001200EF
:0E3DC200FB0EE3CFF6FFFC0EE3CFF7FFFD0E86
:103DD000E3CFF8FFFE0EE3CFE9FFFF0EE3CFEAFFEC
:103DE000E9CFF3FFEACFF4FF0900F5CFEFFFEE666E
:103DF000FBD71200FE0EE3CFE9FFFF0EE3CFEAFF91
:103E0000F36AF46AEE5203E0F34AF42AFBD7120095
:103E1000FE0EE3CFF3FFFF0EE3CFF4FFFB0EE3CF85
:103E2000F6FFFC0EE3CFF7FFFD0EE3CFF8FFF3CF75
:103E3000E9FFF4CFEAFF0900F5500CE0F550EF5C24
:103E400002E1EE52F8D7EF5203E0F34AF42AE6D744
:103E5000F36AF46A1200FF0EE3CFF8FFE552FF0E9B
:103E6000E3CFF7FFE552FF0EE3CFF6FFE552E66A38
:103E7000E66AE66A0900F55209E0FD0EE32A05E16B
:103E8000FE0EE32A02E1FF0EE32AF4D7FD0EE3CF94
:103E900005F0FE0EE3CF06F0FF0EE3CF07F01200B1
:103EA000D9CFE6FFDACFE6FFE1CFD9FFE2CFDAFFE5
:103EB000E652E652E652E652D950F90F146EFF0E62
:103EC000DA20156E020E14C0DBFF030E15C0DBFFF7
:103ED000020EDBCFE6FF030EDBCFE6FFF90EDBCFF2
:103EE000E6FFFA0EDBCFE6FFFB0EDBCFE6FFD95095
:103EF000FC0FE66EFF0EDA20E66EF3EC07F0146EB0
:103F0000070EE15C02E2E16AE552E16E1450F3CF84
:103F1000DEFFF4CFDDFFFC0EDBCFE9FFFD0EDBCFD4
:103F2000EAFFEF6ADECF14F0DDCF15F014C0F3FF27
:103F300015C0F4FF040EE15C02E2E16AE552E16EB5
:0C3F4000E552E5CFDAFFE7CFD9FF120011
:043F4C000E0EF66EF1
:103F5000000EF76E000EF86E0F010900F550316F7C
:103F60000900F550326F03E1316701D03DD00900FF
:103F7000F5502C6F0900F5502D6F0900F5502E6F8C
:103F800009000900F550E96E0900F550EA6E0900D4
:103F900009000900F5502F6F0900F550306F090036
:103FA0000900F6CF33FFF7CF34FFF8CF35FF2CCF22
:103FB000F6FF2DCFF7FF2ECFF8FF0F012F5302E1B1
:103FC000305307E00900F550EE6E2F07F8E2300796
:103FD000F9D733CFF6FF34CFF7FF35CFF8FF0F0116
:0A3FE0003107000E325BBFD712005C
:063FEA00D9CFE6FFDACF9B
:103FF000E6FFE1CFD9FFE2CFDAFFE652E652E65222
:10400000E652D950FB0F146EFF0EDA20156E14C065
:10401000DEFFDD6EDECFE6FFDDCFE6FFFB0EDBCFA2
:10402000E6FFFC0EDBCFE6FFFD0EDBCFE6FFFEC0BA
:10403000E6FFFFC0E6FFF3EC07F0146E070EE15C4D
:1040400002E2E16AE552E16E1450020EF3CFDBFFAB
:10405000030EF4CFDBFF020EDBCF14F0030EDBCF39
:1040600015F014C0F3FF15C0F4FF040EE15C02E28A
:10407000E16AE552E16EE552E5CFDAFFE7CFD9FF1D
:0240800012002C
:0E408200D9CFE6FFE1CFD9FFFE0EDB50FB0BDE
:10409000BA6EBC6A9E92FE0EDBAE02D09D8201D04B
:1040A0009D92BA84E552E7CFD9FF1200D9CFE6FF3F
:1040B000E1CFD9FF1AD811D8FE0EDBCFFFF2E552BF
:1040C000E7CFD9FF1200D59EF2940201FF6B0201E7
:1040D000F86B0201F76BD56A1200D59E0B0ED76EF6
:1040E000DC0ED66EF294D58E1200D9CFE6FFE1CF6A
:1040F000D9FFE652D56A030ED56EF28EF28CF28AA3
:0A410000E552E552E7CFD9FF1200A7
:06410A00D9CFE6FFDACF79
:10411000E6FFE1CFD9FFE2CFDAFFFB0EDBCF14F0F1
:10412000FC0EDBCF15F00001800E15141AE1FB0E1A
:10413000DBCFE9FFFC0EDBCFEAFFEECFF3FFEDCFE5
:10414000F4FFEE2A000EEF22F3CFE9FFF4CFEAFFEF
:10415000FD0EDBCFEFFFEF50156AF36E15C0F4FFD5
:1041600010D0FB0EDB50FE0806E1FD0EDBCFE6FFB4
:10417000A3EC21F005D0FD0EDBCFE6FF03EC00F051
:0E418000E552E552E5CFDAFFE7CFD9FF120096
:02418E000450DB
:104190000B02F3CF00F0F4CF01F00C02F350012634
:1041A000000EF420026E04500D02F3500226000EA1
:1041B000F420036E04500E02F350032605500B0248
:1041C000F3500126F4500222000E032205500C0287
:1041D000F3500226F450032205500D02F35003263B
:1041E00006500B02F3500226F450032206500C0234
:0E41F000F350032607500B02F3500326120073
:0241FE0007C0F8
:1042000013F006C012F006500D02F4CF05F0F3CF04
:1042100004F007500E02F4CF07F0F3CF06F00D02C2
:10422000F3500526F4500622E86A072212500E02C7
:10423000F3500526F4500622E86A07220EAE25EF59
:1042400021F01250065E1350075A13AE000C0D50A9
:08425000065E0E50075A000C37
:08425800036A026A016A006AB0
:10426000200EE76ED890043605360636073600363F
:104270000136023603360B50005C0C5001580D50CD
:1042800002580E50035809E30B50005E0C50015ABF
:104290000D50025A0E50035A042AE72EE4D712009A
:1042A000D9CFE6FFE1CFD9FF020EE126DE6ADD6A53
:1042B000DE6ADD6AD9CFE9FFDACFEAFF640ED88083
:1042C000EE54000EED5405E3DF2A010E01E3DB2A74
:1042D000F1D7020EE15C02E2E16AE552E16EE552DD
:0642E000E7CFD9FF120038
:0A42E600F36AF46AFF0EE124E96EAA
:1042F000FF0EE220EA6EED6607D02F0EEF6404D0C9
:0A4300003A0EEF6001D0F32A12001C
:06430A00380EF36E00EE18
:1043100000F00F0E01D81200EA6002D0EE6AFCD75E
:0A432000F350E9601200EE6AFCD7CA
:06432A001EEE00F02EEE75
:1043300000F0F86A0A9CA6EC1FF0C3EC21F03FECF9
:064340001AF0FBD7120089
:0A434600FF0EE350ACBA04D0AF6ADA
:10435000AB8EAC8A949CACA2FED7AD6EF36EF46AC1
:02436000120049
:0E4362003031323334353637383961626364B6
:034370006566007F
:0C437400F70ED36E9B6A040ED26E12008E
:06438000BA949D921200A8
:02438600120023
:0843880000000000000000002D
:104390000000436F6E74656E742D547970653A2019
:1043A0006170706C69636174696F6E2F782D7777B7
:1043B000772D666F726D2D75726C656E636F6465B7
:1043C000640D0A0D0A4163636570743A202A2F2A2E
:0343D0000D0A00D3
:0D43D3004F4B00000000000000434F4E4E15
:1043E00045435445444552524F5200000000464157
:1043F000494C00000000004C494E4B454400000071
:10440000442D4C696E6B5F4449522D383136003172
:1044100032333435363738006170692E7468696E0E
:1044200067737065616B2E636F6D00687474707371
:104430003A2F2F6170692E7468696E6773706561B9
:104440006B2E636F6D2F7570646174653F61706969
:104450005F6B65793D006170692E7468696E677382
:104460007065616B2E636F6D004F59444458454E23
:1044700054353141513937393400373832373630D5
:10448000000005FFFFFFFFFFFFFFFFFFFFFFFFFF34
:03449000FFFFFF2C
:02449300FEFF2A
:05449500000000000022
:06449A004150534953207C
:1044A000534F4C5554494F4E530A0D0054455354E5
:0644B0004544204F4B00C3
:020000040030CA
:0100010028D6
:0100020019E4
:010003003CC0
:01000500BF3B
:010006008178
:00000001FF
